:020000040000FA
:060000000A128A110C280F
:10000800FE00030EF0000A08F1000A168A11212EDC
:100018000A128A110F288313C230FD001530FE0022
:100028005E30FF00A03084000A168A112F250A12BC
:100038008A110A128A11FE270A128A11EE00831603
:100048000313C701C80183120313E001E101E201B0
:10005800E301E401E501E601E701E801E901EA015C
:10006800EB01EC01F901FA01FB0183010A128A157F
:10007800722C83120313DF000A168A11F2260A1261
:100088008A111230831603134906031D4C284D2884
:10009800E7290A168A111E250A128A114D30F60020
:1000A8009130F7008030F8000A168A11F2250A12FA
:1000B8008A117A0883120313D8005807A03E8400D7
:1000C80083130008F600840A00088403F7008630CA
:1000D800F8000A168A11F2250A128A116830F60009
:1000E8009130F700C030F8000A168A11F2250A127A
:1000F8008A11C630F8000A30F2000030F30083128B
:1001080003136A08D800D9015808F4005908F50003
:100118000A128A1518200A128A117208303E0A1229
:100128008A1503200A128A11C730F8000A30F20033
:100138000030F300831203136A08D800D901580865
:10014800F4005908F5000A168A1148270A128A117C
:100158007208303E0A128A1503200A128A11C83022
:10016800F8003A300A128A1503200A128A11C93097
:10017800F8000A30F2000030F3007B088312031302
:10018800D800D9015808F4005908F5000A128A1550
:1001980018200A128A117208303E0A128A150320A2
:1001A8000A128A11CA30F8000A30F2000030F3004F
:1001B8007B0883120313D800D9015808F4005908A2
:1001C800F5000A168A1148270A128A117208303E69
:1001D8000A128A1503200A128A114530F600913056
:1001E800F7009530F8000A168A11F2250A128A11CA
:1001F800333083120313DA00BB30D900DF30D80064
:10020800D80B0429D90B0429DA0B04290A168A11F8
:100218001E250A128A11DF30F6009030F700803070
:10022800F8000A168A11F2250A128A118030F6009F
:100238009130F700C030F8000A168A11F2250A1228
:100248008A114430F6009030F700D030F8000A16D2
:100258008A11F2250A128A11831203136A08D80038
:10026800D9015808F2005908F3003C30F400003076
:10027800F5000A168A11A4250A128A117B0872074A
:1002880083120313E2000030031801307307E30000
:100298006308E1006208E0006208F2006308F30006
:1002A8000030F31BFF30F400F50001300A128A1108
:1002B80028270A128A11750883120313B1007408DB
:1002C800B0007308AF007208AE003E30AD00EB30EE
:1002D800AC008530AB001F30AA000A128A11E32354
:1002E8000A128A11831203132D08C7002C08C600AE
:1002F8002B08C5002A08C4000A128A1581200A1290
:100308008A11831203134508E7004408E6006208CF
:10031800F2006308F3000030F31BFF30F400F5002F
:1003280001300A128A1128270A128A1175088312C5
:100338000313B1007408B0007308AF007208AE0070
:100348003D30AD00F530AC00C230AB008F30AA00B4
:100358000A128A11E3230A128A11831203132D0841
:10036800C7002C08C6002B08C5002A08C4000A12BA
:100378008A1581200A128A11831203134508E500A1
:100388004408E4006609D8006709D900D80A0319A7
:10039800D90A64085802DA006508031C650A59027C
:1003A800DB0062085A0783160313C700831203137E
:1003B80063080318630A5B0783160313C8008312D4
:1003C8000313121507151F3083125F06031DED294D
:1003D800EE29F229121107110530ED006A08D8003C
:1003E800D9015808F2005908F3003C30F4000030F5
:1003F800F5000A168A11A4250A128A117B087207C9
:1004080083120313E2000030031801307307E3007E
:1004180008307A020318112A122A732A6608600221
:10042800D8006708031C670A6102D9006308803A8C
:10043800DA005908803A5A02031D242A5808620231
:10044800031C272A282A342A8A30F6009130F7001C
:100458008B30F8000A168A11F2250A128A11282B05
:10046800831203136609D8006709D900D80A03194B
:10047800D90A64085802DA006508031C650A59029B
:10048800DB0060085A07DC0061080318610A5B0793
:10049800DD006308803ADE005D08803A5E02031DD5
:1004A800572A5C086202031C5A2A5B2A672A6E30A4
:1004B800F6009130F7008B30F8000A168A11F22501
:1004C8000A128A11282B6230F6009130F7008B301F
:1004D800F8000A168A11F2250A128A11282B083008
:1004E8007A06031D782A792A0B2B6208F200630822
:1004F800F3000030F31BFF30F400F50001300A125E
:100508008A1128270A128A11750883120313CF004B
:100518007408CE007308CD007208CC006008F200A1
:100528006108F3000030F31BFF30F400F5000130E0
:100538000A128A1128270A128A11750883120313CE
:10054800CB007408CA007308C9007208C8006008A4
:10055800F2006108F3000030F31BFF30F400F500EF
:1005680001300A128A1128270A128A117508831283
:100578000313B1007408B0007308AF007208AE002E
:100588003E30AD00CC30AC00CC30AB00CD30AA0052
:100598000A128A11E3230A128A11831203132D08FF
:1005A800C7002C08C6002B08C5002A08C4000A1674
:1005B8008A1180250A128A11831203134708D3006F
:1005C8004608D2004508D1004408D0000A128A150E
:1005D800F9200A128A11031CF22AF32AFF2A6E3024
:1005E800F6009130F7008B30F8000A168A11F225D0
:1005F8000A128A11282B6230F6009130F7008B30EE
:10060800F8000A168A11F2250A128A11282B0930D5
:100618007A06031D102B112B1D2B6E30F60091301E
:10062800F7008B30F8000A168A11F2250A128A118F
:10063800282B8A30F6009130F7008B30F8000A1624
:100648008A11F2250A128A11C630F8000A30F2001F
:100658000030F300831203136A08D800D901580840
:10066800F4005908F5000A128A1518200A128A118E
:100678007208303E0A128A1503200A128A11C730FE
:10068800F8000A30F2000030F300831203136A08FE
:10069800D800D9015808F4005908F5000A168A113B
:1006A80048270A128A117208303E0A128A15032056
:1006B8000A128A11C830F8003A300A128A15032043
:1006C8000A128A11C930F8000A30F2000030F3002B
:1006D8007B0883120313D800D9015808F40059087D
:1006E800F5000A128A1518200A128A117208303E7B
:1006F8000A128A1503200A128A11CA30F8000A3031
:10070800F2000030F3007B0883120313D800D901EC
:100718005808F4005908F5000A168A1148270A12E1
:100728008A117208303E0A128A1503200A128A11A9
:100738007B08031DA02BA12BE22B831203136A084D
:10074800031DA72BA82BE22B1211071187140A16D9
:100758008A111E250A128A116630F6009030F700B9
:100768008030F8000A168A11F2250A128A1186309A
:10077800F6009030F700C030F8000A168A11F2250A
:100788000A128A11333083120313DA00BB30D900FE
:10079800DF30D800D80BCE2BD90BCE2BDA0BCE2BD3
:1007A800831203138710ED01ED0A1030831603132B
:1007B800C9000A168A111E250A128A110800831216
:1007C80003132D088039B7002D08B2003207BD0089
:1007D800AC1FEF2BF02BF12B3D143D080319F52B23
:1007E800F62B052C3D0A031DFA2BFB2B032C00309E
:1007F800AD000030AC000030AB000030AA00AC17F0
:100808000D2C0030AD000030AC000030AB000030E3
:10081800AA0031088039FF007F08B7063108B20006
:100828003207B800B01F192C1A2C1B2C38143808A2
:1008380003191F2C202C2F2C380A031D242C252C9F
:100848002D2C0030B1000030B0000030AF00003077
:10085800AE00B017372C0030B1000030B0000030C7
:10086800AF000030AE00380803193B2C3C2C412C5B
:100878003D08031D402C412C4A2C0030AD000030AF
:10088800AC000030AB000030AA00272F2A08F20085
:1008980030080A168A11C9250A128A1173088312A8
:1008A8000313C3007208C2004208B200B301B401C6
:1008B800B5013508BC003408BB003308BA0032085B
:1008C800B9004308B200B301B401B5013508C1004D
:1008D8003408C0003308BF003208BE002B08F200FD
:1008E8002F080A168A11C9250A128A117308831259
:1008F8000313C3007208C2004208B200B301B40176
:10090800B5013208B907330803110318013E03196A
:100918008E2CBA07340803110318013E0319952CCD
:10092800BB07350803110318013E03199C2CBC07AB
:100938004308B200B301B401B5013208BE07330859
:1009480003110318013E0319AA2CBF073408031129
:100958000318013E0319B12CC00735080311031809
:10096800013E0319B82CC1072C08F2002E080A16FC
:100978008A11C9250A128A11730883120313C30046
:100988007208C2004208B200B301B401B5013208CE
:10099800B907330803110318013E0319D42CBA0709
:1009A800340803110318013E0319DB2CBB07350873
:1009B80003110318013E0319E22CBC074308B200D7
:1009C800B301B401B5013208BE0733080311031897
:1009D800013E0319F02CBF07340803110318013E28
:1009E8000319F72CC007350803110318013E031932
:1009F800FE2CC1070830B2000310B90DBA0DBB0DAB
:100A0800BC0DB20B002D2B08F2002E080A168A1115
:100A1800C9250A128A11730883120313C3007208C6
:100A2800C2004208B2004308B300B401B50132085D
:100A3800B907330803110318013E0319242DBA0717
:100A4800340803110318013E03192B2DBB07350881
:100A580003110318013E0319322DBC072A08F200BE
:100A68002F080A168A11C9250A128A1173088312D7
:100A78000313C3007208C2004208B2004308B3005F
:100A8800B401B5013208B907330803110318013E50
:100A980003194F2DBA07340803110318013E03192F
:100AA800562DBB07350803110318013E03195D2DA8
:100AB800BC070830B2000310B90DBA0DBB0DBC0D50
:100AC800B20B5F2D2A08F2002E080A168A11C925D2
:100AD8000A128A11730883120313C3007208C20032
:100AE8004208B2004308B300B401B5013208B9079F
:100AF800330803110318013E0319832DBA0734087C
:100B080003110318013E03198A2DBB073508031189
:100B18000318013E0319912DBC072B08F200300879
:100B28000A168A11C9250A128A1173088312031337
:100B3800C3007208C2004208B2004308B300B401FF
:100B4800B5013208BE07330803110318013E031923
:100B5800AE2DBF07340803110318013E0319B52D44
:100B6800C007350803110318013E0319BC2DC1073E
:100B78002C08F2002F080A168A11C9250A128A11B0
:100B8800730883120313C3007208C2004208B2003C
:100B98004308B300B401B5013208BE073308031196
:100BA8000318013E0319D92DBF0734080311031890
:100BB800013E0319E02DC007350803110318013E53
:100BC8000319E72DC1072C08F20030080A168A110C
:100BD800C9250A128A11730883120313C300720805
:100BE800C2004208B2004308B300B401B50108309E
:100BF8000310B20DB30DB40DB50DFF3E031DFC2D52
:100C08003208BE07330803110318013E03190D2EDD
:100C1800BF07340803110318013E0319142EC00737
:100C2800350803110318013E03191B2EC1073908A3
:100C3800B2003A08B3003B08B4003C08B5001830CD
:100C48000310B50CB40CB30CB20CFF3E031D242EDC
:100C58003208BE07330803110318013E0319352E65
:100C6800BF07340803110318013E03193C2EC007BF
:100C7800350803110318013E0319432EC107083034
:100C8800B2000310B90DBA0DBB0DBC0DB20B452E49
:100C98003D083807B200B301B30D3208823EC200E6
:100CA80033080318013EFF3EC300772E0130B2001F
:100CB8000310BE0DBF0DC00DC10DB20B5C2EBC1FC5
:100CC800662E672E682E3E140130B2000310B90D4F
:100CD800BA0DBB0DBC0DB20B6A2EFF30C20703184C
:100CE800C30AFF30C307C01F7A2E7B2E5A2EB801C5
:100CF800BC1F7F2E802E9C2EFF303905B200FF309E
:100D08003A05B300FF303B05B4007F303C05B50021
:100D180035083404330432040319932E942E972E85
:100D2800B801B80A9C2E3E1C9A2E9B2E9C2E942EFF
:100D380038080319A02EA12ED22E0130BE0700308C
:100D480003180130BF07003003180130C007003016
:100D580003180130C107411CB22EB32ED22E3E0813
:100D6800B2003F08B3004008B4004108B5000130A4
:100D7800B600350DB50CB40CB30CB20CB60BBD2EC9
:100D88003508C1003408C0003308BF003208BE006F
:100D98000130C2070318C30A0030C3074308803A6A
:100DA800FF0080307F02031DDB2EFF304202031C50
:100DB800DE2EDF2EEA2E7F3083120313C10080302F
:100DC800C0000030BF000030BE001B2F8312031389
:100DD8004308803AFF0080307F02031DF52E013062
:100DE80042020318F82EF92E052F00308312031340
:100DF800C1000030C0000030BF000030BE00B701A5
:100E08001B2F831203134208BD00FF30BE05FF30BD
:100E1800BF057F30C0050030C1053D1C142F152FBC
:100E2800162FC0173D08B2000310320CC100370856
:100E3800FF007F08C1044108AD004008AC003F082E
:100E4800AB003E08AA00080083120313A40024087C
:100E580003192F2F302F442FF51F332F342F442FF2
:100E68007209A6007309A7007409A8007509A900EA
:100E7800A60A0319A70A0319A80A0319A90A4C2FD5
:100E88007508A9007408A8007308A7007208A600CE
:100E98007508740473047204031D532F542F5D2FB7
:100EA8000030F5000030F4000030F3000030F200AC
:100EB800E12F9630A5006D2F0130FF007F08A507B0
:100EC80001300310A90CA80CA70CA60CFF3E031DAB
:100ED800652FFE302905031D722F732F602F8F2F6A
:100EE8000130FF007F08A5070130A607003003186E
:100EF8000130A707003003180130A8070030031895
:100F08000130A90701300310A90CA80CA70CA60CE6
:100F1800FF3E031D872FFF302905031D942F952FB2
:100F2800742FA12F0130A5020130A0000310A60DD7
:100F3800A70DA80DA90DA00B9A2FA81BA42FA52FAC
:100F4800AB2F023025020318AA2FAB2F962F251896
:100F5800AE2FAF2FB72FFF30A605FF30A7057F3084
:100F6800A805FF30A9050310A50C2508A000A101BC
:100F7800A201A30118300310A00DA10DA20DA30D0D
:100F8800FF3E031DBF2F2008A6042108A70422083E
:100F9800A8042308A90424080319D32FD42FD92F70
:100FA800F51FD72FD82FD92FA9172908F5002808FA
:100FB800F4002708F3002608F20008000A168A1130
:100FC80006250A128A110A128A11F8270A128A11AA
:100FD8000A168A1111250A128A118316031307119A
:100FE80087100B178B1708008316031306083F3862
:060FF80086000800013430
:1010060083120313A400F20178080A168A113E25FA
:101016000A128A15F201F20A8312031324080A1629
:101026008A113E250A128A15080083120313A101AC
:10103600F31F1E281F282628F209F309F20A0319AE
:10104600F30AA101A10AF51F29282A283328F40941
:10105600F509F40A0319F50A0130FF007F08A10615
:10106600A201A3017208730403193A283B287228C7
:10107600A001A00A492801300310F20DF30DFF3E2E
:10108600031D3F280130FF007F08A007F31F4C28EF
:101096004D283E2801300310A20DA30DFF3E031D6F
:1010A6004E2873087502031D5A2872087402031C21
:1010B6005D285E2865287208F4027308031CF50390
:1010C600F502221401300310F30CF20CFF3E031D4F
:1010D60066280130A002031D712872284D282108B8
:1010E6000319762877287C28A209A309A20A0319DE
:1010F600A30A2308F3002208F20008000310831253
:101106000313460D470DF7007708031D8B288C281F
:1011160095280030C7000030C6000030C5000030FA
:10112600C400F8284408C8004508C9004608CA0093
:101136004708CB001F300310CB0CCA0CC90CC80CD7
:10114600FF3E031D9E284808F600C617FF30C4055B
:10115600FF30C505FF30C6050030C7059630F702DB
:10116600F71FB628B728D1287708803A973E031884
:10117600BD28BE28BF288C2801300310C70CC60C1A
:10118600C50CC40CFF3E031DC0280130FF007F08BC
:10119600F707031DCF28D028BF28E828203077027C
:1011A600031CD628D728E3288C280130C800031052
:1011B600C40DC50DC60DC70DC80BDA280130F702E0
:1011C6007708031DE728E828D82876080319EC28AD
:1011D600ED28F828C409C509C609C709C40A0319B0
:1011E600C50A0319C60A0319C70A08000030831284
:1011F60003134C05D40000304D05D50080304E0554
:10120600D6007F304F05D7005708560455045404BE
:10121600031D0E290F2917290030CF000030CE00FC
:101226000030CD000030CC0000305005D400003036
:101236005105D50080305205D6007F305305D700C2
:101246005708560455045404031D2A292B2933290B
:101256000030D3000030D2000030D1000030D00082
:10126600CF1F362937295B290030D4000030D5003E
:101276000030D6008030D7004C08D4024D08031C3D
:101286004D0F46294729D5024E08031C4E0F4C29FF
:101296004D29D6024F08031C4F0F52295329D70256
:1012A6005708CF005608CE005508CD005408CC008C
:1012B600D31F5E295F2983290030D4000030D50072
:1012C6000030D6008030D7005008D4025108031CE5
:1012D600510F6E296F29D5025208031C520F74292B
:1012E6007529D6025308031C530F7A297B29D70286
:1012F6005708D3005608D2005508D1005408D0002C
:101306008030CF068030D30653084F02031D95293F
:1013160052084E02031D952951084D02031D9529B9
:1013260050084C020318982999299B2903109C29D7
:10133600031408005F2A2130FB0083120313EA011D
:10134600852A2930FB00A0292D30FB00A029790829
:10135600003A0319A429013A03199E29033A0319ED
:10136600A429013A0319A729073A0319A729852AA7
:101376002B30FB0083120313EA013230FB00831289
:101386000313EA01852A3930FB00A0297908003ABF
:101396000319C029013A0319BB29033A0319C029C5
:1013A600013A0319C629073A0319C629852A1A30AC
:1013B600FB00A0291F30FB00A0297908003A031979
:1013C600DA29013A0319DA29033A0319DA29013A23
:1013D6000319DD29073A0319DD29852A1030FB0098
:1013E60083120313EA01EA0A852A2430FB008312DA
:1013F6000313EA01EA0A1C30FB00A0291D30FB009A
:10140600852A2E30FB0083120313EA013530FB00D8
:1014160083120313EA01852A3C30FB00A0297908D0
:10142600003A0319092A013A0319042A033A03194F
:10143600092A013A03190F2A073A03190F2A852A9E
:101446001230FB0083120313EA01292A1430FB0031
:1014560083120313EA01852A7908003A0319292A17
:10146600013A0319232A033A0319292A013A0319CF
:10147600292A073A0319292A852A0630FB00852AD4
:101486001030FB0083120313EA011530FB008312B0
:101496000313EA01852A7908003A0319482A013A12
:1014A6000319432A033A0319482A013A0319DA2988
:1014B600073A0319DA29852A7A08003A0319AA296C
:1014C600013A0319C929033A0319E029013A031914
:1014D600F129073A0319F829013A0319FE29033AB3
:1014E6000319012A013A0319122A0F3A03192F2A5E
:1014F600013A0319402A033A03194E2A013A0319FD
:101506004E2A852A080083120313A700103083167B
:1015160003134906031D902A912A972A0A168A114F
:101526001E250A128A15FA0137308312031327067D
:10153600031D9E2A9F2AAF2A0130FF007F08FA0763
:101546000C307A06031DA82AA92AAA2AFA010A1625
:101556008A111E250A128A157630F6009030F70099
:101566008030F8000A168A11F2250A128A15C03050
:10157600F8002A300A128A1503200A128A150A3040
:101586007A020318C72AC82A082B7A08831203137B
:10159600A5002507A03E840083130008F600840AF0
:1015A60000088403F700C230F8000A168A11F225F3
:1015B6000A128A157A0883120313A5002507A23E8C
:1015C600840083130008F600840A00088403F700E9
:1015D6009230F8000A168A11F2250A128A157A083C
:1015E60083120313A5002507A43E84008313000875
:1015F600F600840A00088403F700D230F8000A16C1
:101606008A11F2250A128A157B2B0A307A06031DE7
:101616000D2B0E2B462B7A0883120313A5002507E4
:10162600A03E840083130008F600840A00088403A1
:10163600F700C230F8000A168A11F2250A128A1536
:101646007A0883120313A5002507A23E840083139C
:101656000008F600840A00088403F7009230F800B8
:101666000A168A11F2250A128A1583160313200810
:10167600F6002108F700D230F8000A168A11F22582
:101686000A128A157B2B0B307A06031D4B2B4C2B2B
:101696007B2B7A0883120313A5002507A03E84003E
:1016A60083130008F600840A00088403F700C2309A
:1016B600F8000A168A11F2250A128A1583160313F0
:1016C6002008F6002108F7009230F8000A168A1161
:1016D600F2250A128A15831603132208F600230838
:1016E600F700D230F8000A168A11F2250A128A1576
:1016F600080083120313A70011308316031349064B
:10170600031D862B872B8D2BF9010A168A111E25A0
:101716000A128A153730831203132706031D942BEA
:10172600952BA52B0130FF007F08F90705307906B8
:10173600031D9E2B9F2BA02BF9010A168A111E252D
:101746000A128A15D330F6009030F7008030F80080
:101756000A168A11F2250A128A15C030F8002A30B4
:101766000A128A1503200A128A1503307902031811
:10177600BD2BBE2BFE2B790883120313A50025076C
:10178600B83E840083130008F600840A0008840328
:10179600F700C230F8000A168A11F2250A128A15D5
:1017A600790883120313A5002507BA3E8400831324
:1017B6000008F600840A00088403F7009230F80057
:1017C6000A168A11F2250A128A157908831203135A
:1017D600A5002507BC3E840083130008F600840A92
:1017E60000088403F700D230F8000A168A11F225A1
:1017F6000A128A15712C03307906031D032C042C5A
:101806003C2C790883120313A5002507B83E8400F3
:1018160083130008F600840A00088403F700C23028
:10182600F8000A168A11F2250A128A157908831217
:101836000313A5002507BA3E840083130008F600AB
:10184600840A00088403F7009230F8000A168A1109
:10185600F2250A128A15831603133808F60039088A
:10186600F700D230F8000A168A11F2250A128A15F4
:10187600712C04307906031D412C422C712C7908F9
:1018860083120313A5002507B83E840083130008BE
:10189600F600840A00088403F700C230F8000A162E
:1018A6008A11F2250A128A15831603133808F600E0
:1018B6003908F7009230F8000A168A11F2250A1242
:1018C6008A15831603133A08F6003B08F700D23050
:1018D600F8000A168A11F2250A128A1508008312E0
:1018E6000313ED01ED0A103083160313C9000A1223
:1018F6008A11E2270A128A152230F6009030F70084
:101906008030F8000A168A11F2250A128A1500306C
:10191600F6009030F700C030F8000A168A11F2255A
:101926000A128A155530F6009030F7009030F8000C
:101936000A168A11F2250A128A15B52CB8308316B2
:101946000313C2000B30C300FF30C2070318C30ADB
:10195600FF30C307420A031DB42C430A031DB42CEF
:10196600B52CA72C01300A168A11A1270A128A154E
:101976002F3A031DBF2CC02CA12C0A168A111E2536
:101986000A128A150A168A119D260A128A1501302C
:101996000A168A11A1270A128A1583160313C6008E
:1019A600B830C4000B30C500FF30C4070318C50AA1
:1019B600FF30C507440A031DE42C450A031DE42C29
:1019C600E52CD72CB7304606031DEA2CEB2CF92C58
:1019D600831203136D03031DF12CF22CF92C023034
:1019E600ED00113083160313C9008A2DB730831614
:1019F60003134606031D002D012D392D02308312D7
:101A060003136D06031D082D092D392D0A128A159B
:101A16009D210A128A150A168A111E250A128A158E
:101A2600AE30F6009030F7008030F8000A168A11C2
:101A3600F2250A128A159430F6009030F700C0306D
:101A4600F8000A168A11F2250A128A15BB30F6002A
:101A56009030F7009030F8000A168A11F2250A1223
:101A66008A15033083120313ED008A2D2F30831657
:101A760003134606031D402D412D4E2D05308312BE
:101A860003136D06031D482D492D4E2D12150715FE
:101A96000430ED008A2D8A2D8316031346080A1298
:101AA6008A1586220A128A15992D8316031346086B
:101AB6000A128A157C230A128A15992D2F3083164D
:101AC60003134606031D682D692D722D04308312FB
:101AD6000313ED00123083160313C900CA2C1F30FE
:101AE6004606031D772D782D992D83120313ED01DC
:101AF600ED0A103083160313C900CA2C831603138C
:101B060046080A128A113D200A128A15992D831257
:101B16006D08013A03194F2D033A0319582D013A5E
:101B26000319612D073A0319812D992D8316031385
:101B3600C901CA2C0A128A110C288312031323081E
:101B46008039F2002308A8002807F400A21FAC2D54
:101B5600AD2DAE2D741474080319B22DB32DC32DFB
:101B6600740A031DB72DB82DC02D0030A300003018
:101B7600A2000030A1000030A000A217A301CB2DC7
:101B86000030A3000030A2000030A1000030A00009
:101B960027088039F300730872060319D32DD42D54
:101BA600D52D72172708A8002807F300A61FDC2DDD
:101BB600DD2DDE2D731473080319E22DE32DF32DAD
:101BC600730A031DE72DE82DF02D0030A700003025
:101BD600A6000030A5000030A400A617A701FB2D23
:101BE6000030A7000030A6000030A5000030A40099
:101BF600740873020318002E012E272E721F042E5E
:101C0600052E092E8030FF007F08F2067408F500C5
:101C16007308F4007508F3002008F5002408A000F6
:101C26007508A4002108F5002508A1007508A5007F
:101C36002208F5002608A2007508A6002308F5006C
:101C46002708A3007508A700F5017308A800A901D5
:101C56002908AB0074082802AA00031CAB032B0852
:101C6600803AFF0080307F02031D3B2E1A302A0285
:101C7600031C3E2E3F2E7A2E8312031323082204C2
:101C860021042004031D482E4A2E01304B2E00301D
:101C9600F5000030A3000030A2000030A1000030A3
:101CA600A0007308F400802E751C5A2E5B2E642E3D
:101CB600750883120313A8000310280C0138F500D9
:101CC600662E0310F50C83120313201C6B2E6C2E4C
:101CD6006D2EF5170130A800230DA30CA20CA10C44
:101CE600A00CA80B6F2E0130FF007F08F4077308C5
:101CF6007402031C7F2E802E572E721B832E842E79
:101D0600D12E7408031D882E892E942E003083123E
:101D16000313A3000030A2000030A1000030A00091
:101D2600FF2F831203132408A007250803110318A5
:101D3600013E03199F2EA107260803110318013E31
:101D46000319A62EA207270803110318013E03193B
:101D5600AD2EA307231CB02EB12E872F751CB42ED3
:101D6600B52EBC2E7508A8000310280C0138F50006
:101D7600BE2E0310F50C201CC12EC22EC32EF51745
:101D86000130A800230DA30CA20CA10CA00CA80BDB
:101D9600C52E0130FF007F08F407872F8312031337
:101DA6002308803AFF002708803A7F02031DE52EAC
:101DB60026082202031DE52E25082102031DE52E15
:101DC600240820020318E82EE92E412FFF30A80030
:101DD600FF30A900FF30AA00FF30AB002408AC009A
:101DE6002508AD002608AE002708AF002008AC0283
:101DF6002108031C210F002F012FAD022208031C0E
:101E0600220F062F072FAE022308031C230F0C2FC9
:101E16000D2FAF022C08A8072D0803182D0F142F1D
:101E2600152FA9072E0803182E0F1A2F1B2FAA07E6
:101E36002F0803182F0AAB072B08A3002A08A200B5
:101E46002908A1002808A0008030FF007F08F206BC
:101E5600F509F50A7508031D312F322F4F2F013072
:101E6600A007003003180130A10700300318013025
:101E7600A207003003180130A3074F2F2408A00241
:101E86002508031C250FA1022608031C260FA20203
:101E96002708031C270FA302230822042104200479
:101EA600031D562F572F832F7508031D5B2F5C2F9D
:101EB600832F0030A3000030A2000030A1000030C4
:101EC600A000FF2F0130A8000310A00DA10DA20D48
:101ED600A30DA80B672FF51F712F722F732F2014D8
:101EE600751C762F772F7A2F0314F50D7C2F031090
:101EF600F50D74080319802F812F832F0130F4020A
:101F0600A21F862F872F652FF301F51F8B2F8C2F8E
:101F16009A2F75087F390319912F922F952FF30168
:101F2600F30A9A2F201C982F992F9A2F922F730815
:101F360003199E2F9F2FD32F0130A00700300318BF
:101F46000130A107003003180130A2070030031842
:101F56000130A307231CB02FB12FD32F2008A800D0
:101F66002108A9002208AA002308AB000130AC0012
:101F76002B0DAB0CAA0CA90CA80CAC0BBB2F2B0879
:101F8600A3002A08A2002908A1002808A000740AB4
:101F96000319CE2FCF2FD32F0130FF007F08F40770
:101FA600740A0319D72FD82FDD2F7408031DDC2FD1
:101FB600DD2FEB2F0030A3000030A2000030A1007F
:101FC6000030A0007408031DE92FEA2FEB2FF20161
:101FD600741CEE2FEF2FF12FA217F52F7F30FF0085
:101FE6007F08A2057408A8000310280CA300F21F9E
:101FF600FD2FFE2FFF2FA317080020342034203496
:10200600203450346F3477346534723420344F348E
:102016004E3420342034203420340034203420340C
:1020260050344F3457344534523449344E3447349F
:1020360020344F344E3420342034203400342034BD
:102046005034723465347334733420344B3465340D
:1020560079343534203454346F3420342034003409
:102066002034573441345334483449344E34473499
:1020760020344D3441344334483449344E344534A5
:10208600003435342D3453345434413452345434BA
:102096002034203436342D345034413455345334BE
:1020A6004534003420345734613473346834693429
:1020B6006E34673420344D346134633468346934A3
:1020C6006E3465340034503472346F3467342E34D1
:1020D600203443346F346D3470346C346534743466
:1020E6006534643400345734613473346834693485
:1020F6006E3467342034503472346F34673472343B
:1021060061346D340034523465346D346F34763452
:102116006534203443346C346F3474346834733427
:10212600003420345334573435343A34203453345D
:1021360054344134523454342034003450346C34E2
:102146006534613473346534203443346C346F340D
:1021560073346534003450347234653473347334F4
:102166002034533477346934743463346834003437
:1021760020345334573436343A34203453345434B8
:102186004F3450342034003444344F344F345234B6
:1021960020343A3420344F34503445344E340034ED
:1021A6005734613474346534723420344C346534B5
:1021B600763465346C340034463475346E346334A6
:1021C600743469346F346E3420342D340034413421
:1021D6007134753461342034733474346F3472342A
:1021E6006534003473347434613469346E342034A5
:1021F60077346134733468340034453463346F346F
:1022060043346F34743474346F346E34733400343E
:10221600443465346C3469346334613474346534FD
:10222600733400344234653464345334683465346A
:102236006534743473340034573461347334683419
:1022460020344F346E346C3479340034523469346B
:102256006E34733465342B34443472347934003438
:1022660057346F346F344C346C3465346E34733495
:10227600003444347234793420346F346E346C3420
:102286007934003428344D344D343A34533453348D
:1022960029340034503472346F3467343A3420347D
:1022A60000344D3465346434693475346D34003427
:1022B60057346834693474346534733400345334B1
:1022C600703469346E3420340034543469346D34D7
:1022D60065343A340034523469346E3473346534B8
:1022E60000344434613469346C347934003448340D
:1022F60065346134763479340034543449344D3499
:10230600453400344834693467346834003457340B
:1023160061347334683400344134753474346F3442
:1023260000344C346F34773400344D3461347834AF
:102336000034FF1BA62983137F1883170008840A1D
:102346000319FF0A08007F087F398A000408840AF7
:062356000319FF0A8200DA
:102A0C00831603138801091189100A168A11562698
:102A1C000A168A1108008312031312149214FA3046
:102A2C008316031392008C148312031312110800E3
:102A3C00F20101300A168A113E250A168A11A630B7
:102A4C00F600F60B272D000008007E088A007F0890
:102A5C0082000A168A112B250A168A118000840A14
:102A6C0004087D0603190034FF0A0319FE0A2F2DF2
:102A7C00F5007218422D462D831203130915492DAA
:102A8C00831203130911750888008914A630F3000A
:102A9C00F30B4E2D00008312031389101B30F4002E
:102AAC009E30F300F30B582DF40B582D000008004A
:102ABC00743491347A3491340B3491345B349134D2
:102ACC00F5349034003491343334913415349134DA
:102ADC00293491343C3491341F349134EA34903499
:102AEC008F349134943491345434913485349134FA
:102AFC0098349134803083120313C7064B08A3001B
:102B0C004A08A2004908A1004808A0004708A700ED
:102B1C004608A6004508A5004408A4000A128A1518
:102B2C00A0250A168A11831203132308C700220852
:102B3C00C6002108C5002008C4000800F601F701F2
:102B4C00721CA92DAA2DB02D7408F6070318F70ACC
:102B5C007508F70701300310F40DF50DFF3E031D4A
:102B6C00B12D01300310F30CF20CFF3E031DB82DF8
:102B7C0072087304031DC32DC42DA62D7708F30012
:102B8C007608F200080083120313A400A001A1012F
:102B9C007208F400F5017408A2007508A300241C47
:102BAC00D82DD92DDF2D2208A0070318A10A230840
:102BBC00A10701300310A20DA30DFF3E031DE02D54
:102BCC000310A40C2408031DEC2DED2DD52D21088C
:102BDC00F3002008F2000800F20178080A168A11A6
:102BEC003E250A168A11102EF201F20A7708FF0010
:102BFC00760884000A168A119C210A168A110A1674
:102C0C008A113E250A168A110130F6070318F70AB5
:102C1C000030F707770883120313FF00760884004F
:102C2C000A168A119C210A168A11003A031D1F2EBE
:102C3C00202EFA2D0800831203138C1C262E272E0F
:102C4C004F2E0130E8070318E90A0030E907E2309B
:102C5C006806043003196906031D352E362E4E2ED8
:102C6C00E801E9017B0803193C2E3D2E402E013072
:102C7C00FB024E2E7B08031D442E452E4E2E6A0859
:102C8C000319492E4A2E4E2E0130EA023B30FB002E
:102C9C008C1071088A00700E8300FE0E7E0E0900E7
:102CAC00C330F700CD30F600F60B5A2EF70B5A2E28
:102CBC00F20133300A168A113E250A168A111B308E
:102CCC00F7009E30F600F60B692EF70B692E00000C
:102CDC00F20133300A168A113E250A168A11A630E3
:102CEC00F600F60B772E0000F20133300A168A112B
:102CFC003E250A168A11822E832E0000F201013025
:102D0C000A168A113E250A168A11A630F600F60B11
:102D1C008D2E0000F2010C300A168A113E250A167F
:102D2C008A11A630F600F60B992E000008008312CB
:102D3C000313A8012808803EF800FF300A128A15F8
:102D4C0003200A168A110130FF007F088312031337
:102D5C00A80710302802031CB42EB52EA02E11305B
:102D6C00F6009030F700C030F8000A168A11F225F0
:102D7C000A168A113330F6009030F7009030F800C4
:102D8C000A168A11F2250A168A1183120313A90155
:102D9C002908D03EF800FF300A128A1503200A16C3
:102DAC008A110130FF007F0883120313A90710302A
:102DBC002902031CE22EE32ECE2E4D308312031378
:102DCC00A7001930A6004F30A500A50BEB2EA60BC3
:102DDC00EB2EA70BEB2E0800831203130618F72E0D
:102DEC00F82E472F8714071112110A168A111E2567
:102DFC000A168A11C730F6009030F7008030F800C0
:102E0C000A168A11F2250A168A11A130F6009030A2
:102E1C00F7009030F8000A168A11F2250A168A116A
:102E2C0083120313061C1B2F1C2F162F0A168A1134
:102E3C001E250A168A118312031307151215871003
:102E4C00DF30F6009030F7008030F8000A168A1157
:102E5C00F2250A168A118030F6009130F700C03046
:102E6C00F8000A168A11F2250A168A114430F60067
:102E7C009030F700D030F8000A168A11F2250A16A5
:102E8C008A110800F701F51F4C2F4D2F542FF40910
:102E9C00F509F40A0319F50AF701F70AF31F572F7E
:102EAC00582F5D2FF209F309F20A0319F30A72087D
:102EBC0073040319622F632F922FF601F60A712FF8
:102ECC0001300310F20DF30DFF3E031D672F01308F
:102EDC00FF007F08F607F31F742F752F662F7308FA
:102EEC007502031D7B2F72087402031C7E2F7F2F2B
:102EFC00852F7208F4027308031CF503F5020130E8
:102F0C000310F30CF20CFF3E031D862F0130F6026A
:102F1C00031D912F922F752F77080319962F972F3A
:102F2C009C2FF409F509F40A0319F50A7508F30046
:102F3C007408F2000800F3007308031DA62FA72FD6
:102F4C00AC2F8312031306083F39FF2F3F30831237
:102F5C0003130605F2003F3072060319B62FB72F84
:102F6C00C22F6E080319BB2FBC2FC22FEE01EB0131
:102F7C0006083F39EC00FE2F6E08031DC62FC72F25
:102F8C00D92F06083F396C06031DCD2FCE2FD92F14
:102F9C0032306B020318D32FD42FD92F0130FF00FE
:102FAC007F08EB07FE2F32306B06031DDE2FDF2F61
:102FBC00E62F0130FF007F08EB076C088038FF2FED
:102FCC003F300605F2003F307206031DEE2FEF2F47
:102FDC00FE2F6E08031DF32FF42FFE2FEE01EE0AC9
:102FEC0032306B020318FB2FFC2FFE2F6C08FF2FC7
:042FFC003F3008005A
:02400E00FB3F76
:00000001FF
